{
  "_format": "hh-sol-artifact-1",
  "contractName": "FreelancerEscrow",
  "sourceName": "contracts/FreelancerEscrow.sol",
  "abi": [
    {
      "anonymous": false,
      "inputs": [
        {
          "indexed": true,
          "internalType": "uint256",
          "name": "jobId",
          "type": "uint256"
        },
        {
          "indexed": true,
          "internalType": "address",
          "name": "applicant",
          "type": "address"
        }
      ],
      "name": "JobApplied",
      "type": "event"
    },
    {
      "anonymous": false,
      "inputs": [
        {
          "indexed": true,
          "internalType": "uint256",
          "name": "jobId",
          "type": "uint256"
        },
        {
          "indexed": true,
          "internalType": "address",
          "name": "freelancer",
          "type": "address"
        }
      ],
      "name": "JobAssigned",
      "type": "event"
    },
    {
      "anonymous": false,
      "inputs": [
        {
          "indexed": true,
          "internalType": "uint256",
          "name": "jobId",
          "type": "uint256"
        }
      ],
      "name": "JobCancelled",
      "type": "event"
    },
    {
      "anonymous": false,
      "inputs": [
        {
          "indexed": true,
          "internalType": "uint256",
          "name": "jobId",
          "type": "uint256"
        }
      ],
      "name": "JobCompleted",
      "type": "event"
    },
    {
      "anonymous": false,
      "inputs": [
        {
          "indexed": true,
          "internalType": "uint256",
          "name": "jobId",
          "type": "uint256"
        },
        {
          "indexed": true,
          "internalType": "address",
          "name": "client",
          "type": "address"
        },
        {
          "indexed": false,
          "internalType": "string",
          "name": "title",
          "type": "string"
        },
        {
          "indexed": false,
          "internalType": "uint256",
          "name": "amount",
          "type": "uint256"
        }
      ],
      "name": "JobCreated",
      "type": "event"
    },
    {
      "anonymous": false,
      "inputs": [
        {
          "indexed": true,
          "internalType": "uint256",
          "name": "jobId",
          "type": "uint256"
        }
      ],
      "name": "JobDisputed",
      "type": "event"
    },
    {
      "anonymous": false,
      "inputs": [
        {
          "indexed": true,
          "internalType": "uint256",
          "name": "jobId",
          "type": "uint256"
        },
        {
          "indexed": true,
          "internalType": "address",
          "name": "client",
          "type": "address"
        }
      ],
      "name": "JobFunded",
      "type": "event"
    },
    {
      "anonymous": false,
      "inputs": [
        {
          "indexed": true,
          "internalType": "uint256",
          "name": "jobId",
          "type": "uint256"
        }
      ],
      "name": "JobRefunded",
      "type": "event"
    },
    {
      "inputs": [
        {
          "internalType": "uint256",
          "name": "_jobId",
          "type": "uint256"
        }
      ],
      "name": "applyForJob",
      "outputs": [],
      "stateMutability": "nonpayable",
      "type": "function"
    },
    {
      "inputs": [
        {
          "internalType": "uint256",
          "name": "_jobId",
          "type": "uint256"
        },
        {
          "internalType": "address",
          "name": "_freelancer",
          "type": "address"
        }
      ],
      "name": "assignFreelancer",
      "outputs": [],
      "stateMutability": "nonpayable",
      "type": "function"
    },
    {
      "inputs": [
        {
          "internalType": "uint256",
          "name": "_jobId",
          "type": "uint256"
        }
      ],
      "name": "cancelJob",
      "outputs": [],
      "stateMutability": "nonpayable",
      "type": "function"
    },
    {
      "inputs": [
        {
          "internalType": "uint256",
          "name": "_jobId",
          "type": "uint256"
        }
      ],
      "name": "completeJob",
      "outputs": [],
      "stateMutability": "nonpayable",
      "type": "function"
    },
    {
      "inputs": [
        {
          "internalType": "string",
          "name": "_title",
          "type": "string"
        },
        {
          "internalType": "string",
          "name": "_description",
          "type": "string"
        }
      ],
      "name": "createJob",
      "outputs": [
        {
          "internalType": "uint256",
          "name": "",
          "type": "uint256"
        }
      ],
      "stateMutability": "nonpayable",
      "type": "function"
    },
    {
      "inputs": [
        {
          "internalType": "uint256",
          "name": "_jobId",
          "type": "uint256"
        }
      ],
      "name": "fundJob",
      "outputs": [],
      "stateMutability": "payable",
      "type": "function"
    },
    {
      "inputs": [
        {
          "internalType": "uint256",
          "name": "_jobId",
          "type": "uint256"
        }
      ],
      "name": "getJob",
      "outputs": [
        {
          "internalType": "uint256",
          "name": "id",
          "type": "uint256"
        },
        {
          "internalType": "address",
          "name": "client",
          "type": "address"
        },
        {
          "internalType": "address",
          "name": "freelancer",
          "type": "address"
        },
        {
          "internalType": "uint256",
          "name": "amount",
          "type": "uint256"
        },
        {
          "internalType": "string",
          "name": "title",
          "type": "string"
        },
        {
          "internalType": "string",
          "name": "description",
          "type": "string"
        },
        {
          "internalType": "enum FreelancerEscrow.JobStatus",
          "name": "status",
          "type": "uint8"
        },
        {
          "internalType": "uint256",
          "name": "createdAt",
          "type": "uint256"
        },
        {
          "internalType": "uint256",
          "name": "completedAt",
          "type": "uint256"
        }
      ],
      "stateMutability": "view",
      "type": "function"
    },
    {
      "inputs": [
        {
          "internalType": "uint256",
          "name": "_jobId",
          "type": "uint256"
        }
      ],
      "name": "getJobApplicants",
      "outputs": [
        {
          "internalType": "address[]",
          "name": "",
          "type": "address[]"
        }
      ],
      "stateMutability": "view",
      "type": "function"
    },
    {
      "inputs": [],
      "name": "getJobCount",
      "outputs": [
        {
          "internalType": "uint256",
          "name": "",
          "type": "uint256"
        }
      ],
      "stateMutability": "view",
      "type": "function"
    },
    {
      "inputs": [
        {
          "internalType": "uint256",
          "name": "",
          "type": "uint256"
        },
        {
          "internalType": "address",
          "name": "",
          "type": "address"
        }
      ],
      "name": "hasApplied",
      "outputs": [
        {
          "internalType": "bool",
          "name": "",
          "type": "bool"
        }
      ],
      "stateMutability": "view",
      "type": "function"
    },
    {
      "inputs": [
        {
          "internalType": "uint256",
          "name": "",
          "type": "uint256"
        },
        {
          "internalType": "uint256",
          "name": "",
          "type": "uint256"
        }
      ],
      "name": "jobApplicants",
      "outputs": [
        {
          "internalType": "address",
          "name": "",
          "type": "address"
        }
      ],
      "stateMutability": "view",
      "type": "function"
    },
    {
      "inputs": [],
      "name": "jobCount",
      "outputs": [
        {
          "internalType": "uint256",
          "name": "",
          "type": "uint256"
        }
      ],
      "stateMutability": "view",
      "type": "function"
    },
    {
      "inputs": [
        {
          "internalType": "uint256",
          "name": "",
          "type": "uint256"
        }
      ],
      "name": "jobs",
      "outputs": [
        {
          "internalType": "uint256",
          "name": "id",
          "type": "uint256"
        },
        {
          "internalType": "address",
          "name": "client",
          "type": "address"
        },
        {
          "internalType": "address",
          "name": "freelancer",
          "type": "address"
        },
        {
          "internalType": "uint256",
          "name": "amount",
          "type": "uint256"
        },
        {
          "internalType": "string",
          "name": "title",
          "type": "string"
        },
        {
          "internalType": "string",
          "name": "description",
          "type": "string"
        },
        {
          "internalType": "enum FreelancerEscrow.JobStatus",
          "name": "status",
          "type": "uint8"
        },
        {
          "internalType": "uint256",
          "name": "createdAt",
          "type": "uint256"
        },
        {
          "internalType": "uint256",
          "name": "completedAt",
          "type": "uint256"
        }
      ],
      "stateMutability": "view",
      "type": "function"
    }
  ],
  "bytecode": "0x608060405234801561001057600080fd5b50612bab806100206000396000f3fe6080604052600436106100c25760003560e01c8063a1c0d32f1161007f578063bf22c45711610059578063bf22c45714610287578063c949756c146102cc578063e0c94ae5146102f5578063f2b67e7d1461031e576100c2565b8063a1c0d32f146101f6578063a39bf5441461021f578063b02b4a2f1461025c576100c2565b806304f801a0146100c7578063180aedf3146101045780631dffa3dc146101495780632b1ed581146101725780634c5d8a0f146101af5780638d22b863146101da575b600080fd5b3480156100d357600080fd5b506100ee60048036038101906100e99190611929565b61035b565b6040516100fb9190611a46565b60405180910390f35b34801561011057600080fd5b5061012b60048036038101906101269190611929565b6103fc565b60405161014099989796959493929190611b8d565b60405180910390f35b34801561015557600080fd5b50610170600480360381019061016b9190611929565b6105a7565b005b34801561017e57600080fd5b5061019960048036038101906101949190611d5d565b61088d565b6040516101a69190611dd5565b60405180910390f35b3480156101bb57600080fd5b506101c4610aaf565b6040516101d19190611dd5565b60405180910390f35b6101f460048036038101906101ef9190611929565b610ab5565b005b34801561020257600080fd5b5061021d60048036038101906102189190611929565b610c96565b005b34801561022b57600080fd5b5061024660048036038101906102419190611e1c565b610f85565b6040516102539190611e77565b60405180910390f35b34801561026857600080fd5b50610271610fb4565b60405161027e9190611dd5565b60405180910390f35b34801561029357600080fd5b506102ae60048036038101906102a99190611929565b610fbe565b6040516102c399989796959493929190611b8d565b60405180910390f35b3480156102d857600080fd5b506102f360048036038101906102ee9190611e1c565b61126e565b005b34801561030157600080fd5b5061031c60048036038101906103179190611929565b61151b565b005b34801561032a57600080fd5b5061034560048036038101906103409190611e92565b611891565b6040516103529190611ed2565b60405180910390f35b6060600260008381526020019081526020016000208054806020026020016040519081016040528092919081815260200182805480156103f057602002820191906000526020600020905b8160009054906101000a900473ffffffffffffffffffffffffffffffffffffffff1673ffffffffffffffffffffffffffffffffffffffff16815260200190600101908083116103a6575b50505050509050919050565b60006020528060005260406000206000915090508060000154908060010160009054906101000a900473ffffffffffffffffffffffffffffffffffffffff16908060020160009054906101000a900473ffffffffffffffffffffffffffffffffffffffff169080600301549080600401805461047790611f1c565b80601f01602080910402602001604051908101604052809291908181526020018280546104a390611f1c565b80156104f05780601f106104c5576101008083540402835291602001916104f0565b820191906000526020600020905b8154815290600101906020018083116104d357829003601f168201915b50505050509080600501805461050590611f1c565b80601f016020809104026020016040519081016040528092919081815260200182805461053190611f1c565b801561057e5780601f106105535761010080835404028352916020019161057e565b820191906000526020600020905b81548152906001019060200180831161056157829003601f168201915b5050505050908060060160009054906101000a900460ff16908060070154908060080154905089565b600080600083815260200190815260200160002090503373ffffffffffffffffffffffffffffffffffffffff168160010160009054906101000a900473ffffffffffffffffffffffffffffffffffffffff1673ffffffffffffffffffffffffffffffffffffffff161461064f576040517f08c379a000000000000000000000000000000000000000000000000000000000815260040161064690611fbf565b60405180910390fd5b6001600581111561066357610662611b16565b5b8160060160009054906101000a900460ff16600581111561068757610686611b16565b5b146106c7576040517f08c379a00000000000000000000000000000000000000000000000000000000081526004016106be9061202b565b60405180910390fd5b600073ffffffffffffffffffffffffffffffffffffffff168160020160009054906101000a900473ffffffffffffffffffffffffffffffffffffffff1673ffffffffffffffffffffffffffffffffffffffff161461075a576040517f08c379a0000000000000000000000000000000000000000000000000000000008152600401610751906120bd565b60405180910390fd5b60008160010160009054906101000a900473ffffffffffffffffffffffffffffffffffffffff1673ffffffffffffffffffffffffffffffffffffffff1682600301546040516107a89061210e565b60006040518083038185875af1925050503d80600081146107e5576040519150601f19603f3d011682016040523d82523d6000602084013e6107ea565b606091505b505090508061082e576040517f08c379a00000000000000000000000000000000000000000000000000000000081526004016108259061216f565b60405180910390fd5b60058260060160006101000a81548160ff0219169083600581111561085657610855611b16565b5b0217905550827f58243f872c550ad02802199ade99eb4250f6bb19e9abbf2d3de7b969c0eb5e4f60405160405180910390a2505050565b600080600160008154809291906108a3906121be565b9190505590506040518061012001604052808281526020013373ffffffffffffffffffffffffffffffffffffffff168152602001600073ffffffffffffffffffffffffffffffffffffffff168152602001600081526020018581526020018481526020016000600581111561091b5761091a611b16565b5b815260200142815260200160008152506000808381526020019081526020016000206000820151816000015560208201518160010160006101000a81548173ffffffffffffffffffffffffffffffffffffffff021916908373ffffffffffffffffffffffffffffffffffffffff16021790555060408201518160020160006101000a81548173ffffffffffffffffffffffffffffffffffffffff021916908373ffffffffffffffffffffffffffffffffffffffff1602179055506060820151816003015560808201518160040190816109f491906123b2565b5060a0820151816005019081610a0a91906123b2565b5060c08201518160060160006101000a81548160ff02191690836005811115610a3657610a35611b16565b5b021790555060e0820151816007015561010082015181600801559050503373ffffffffffffffffffffffffffffffffffffffff16817fe2664ff85acbefce4793e83fe4a10e88680b3172a3e401c7946d7cfb8f19ebdb866000604051610a9d9291906124bf565b60405180910390a38091505092915050565b60015481565b600080600083815260200190815260200160002090503373ffffffffffffffffffffffffffffffffffffffff168160010160009054906101000a900473ffffffffffffffffffffffffffffffffffffffff1673ffffffffffffffffffffffffffffffffffffffff1614610b5d576040517f08c379a0000000000000000000000000000000000000000000000000000000008152600401610b5490612561565b60405180910390fd5b60006005811115610b7157610b70611b16565b5b8160060160009054906101000a900460ff166005811115610b9557610b94611b16565b5b14610bd5576040517f08c379a0000000000000000000000000000000000000000000000000000000008152600401610bcc906125cd565b60405180910390fd5b60003411610c18576040517f08c379a0000000000000000000000000000000000000000000000000000000008152600401610c0f90612639565b60405180910390fd5b34816003018190555060018160060160006101000a81548160ff02191690836005811115610c4957610c48611b16565b5b02179055503373ffffffffffffffffffffffffffffffffffffffff16827f1f2ef778192db87b6b1252b66de4351140e6f0d1f867e43904cd573ef33d3a1960405160405180910390a35050565b600080600083815260200190815260200160002090503373ffffffffffffffffffffffffffffffffffffffff168160010160009054906101000a900473ffffffffffffffffffffffffffffffffffffffff1673ffffffffffffffffffffffffffffffffffffffff1614610d3e576040517f08c379a0000000000000000000000000000000000000000000000000000000008152600401610d35906126cb565b60405180910390fd5b60016005811115610d5257610d51611b16565b5b8160060160009054906101000a900460ff166005811115610d7657610d75611b16565b5b14610db6576040517f08c379a0000000000000000000000000000000000000000000000000000000008152600401610dad9061202b565b60405180910390fd5b600073ffffffffffffffffffffffffffffffffffffffff168160020160009054906101000a900473ffffffffffffffffffffffffffffffffffffffff1673ffffffffffffffffffffffffffffffffffffffff1603610e49576040517f08c379a0000000000000000000000000000000000000000000000000000000008152600401610e409061275d565b60405180910390fd5b60008160020160009054906101000a900473ffffffffffffffffffffffffffffffffffffffff1673ffffffffffffffffffffffffffffffffffffffff168260030154604051610e979061210e565b60006040518083038185875af1925050503d8060008114610ed4576040519150601f19603f3d011682016040523d82523d6000602084013e610ed9565b606091505b5050905080610f1d576040517f08c379a0000000000000000000000000000000000000000000000000000000008152600401610f149061216f565b60405180910390fd5b60028260060160006101000a81548160ff02191690836005811115610f4557610f44611b16565b5b0217905550428260080181905550827f02244c8529cb95e213ee542e76e7776342b3dabd10203d01472bbf4441be892960405160405180910390a2505050565b60036020528160005260406000206020528060005260406000206000915091509054906101000a900460ff1681565b6000600154905090565b6000806000806060806000806000806000808c815260200190815260200160002060405180610120016040529081600082015481526020016001820160009054906101000a900473ffffffffffffffffffffffffffffffffffffffff1673ffffffffffffffffffffffffffffffffffffffff1673ffffffffffffffffffffffffffffffffffffffff1681526020016002820160009054906101000a900473ffffffffffffffffffffffffffffffffffffffff1673ffffffffffffffffffffffffffffffffffffffff1673ffffffffffffffffffffffffffffffffffffffff168152602001600382015481526020016004820180546110bb90611f1c565b80601f01602080910402602001604051908101604052809291908181526020018280546110e790611f1c565b80156111345780601f1061110957610100808354040283529160200191611134565b820191906000526020600020905b81548152906001019060200180831161111757829003601f168201915b5050505050815260200160058201805461114d90611f1c565b80601f016020809104026020016040519081016040528092919081815260200182805461117990611f1c565b80156111c65780601f1061119b576101008083540402835291602001916111c6565b820191906000526020600020905b8154815290600101906020018083116111a957829003601f168201915b505050505081526020016006820160009054906101000a900460ff1660058111156111f4576111f3611b16565b5b600581111561120657611205611b16565b5b8152602001600782015481526020016008820154815250509050806000015181602001518260400151836060015184608001518560a001518660c001518760e00151886101000151995099509950995099509950995099509950509193959799909294969850565b600080600084815260200190815260200160002090503373ffffffffffffffffffffffffffffffffffffffff168160010160009054906101000a900473ffffffffffffffffffffffffffffffffffffffff1673ffffffffffffffffffffffffffffffffffffffff1614611316576040517f08c379a000000000000000000000000000000000000000000000000000000000815260040161130d906127ef565b60405180910390fd5b6001600581111561132a57611329611b16565b5b8160060160009054906101000a900460ff16600581111561134e5761134d611b16565b5b1461138e576040517f08c379a00000000000000000000000000000000000000000000000000000000081526004016113859061285b565b60405180910390fd5b600073ffffffffffffffffffffffffffffffffffffffff168273ffffffffffffffffffffffffffffffffffffffff16036113fd576040517f08c379a00000000000000000000000000000000000000000000000000000000081526004016113f4906128c7565b60405180910390fd5b8060010160009054906101000a900473ffffffffffffffffffffffffffffffffffffffff1673ffffffffffffffffffffffffffffffffffffffff168273ffffffffffffffffffffffffffffffffffffffff160361148f576040517f08c379a000000000000000000000000000000000000000000000000000000000815260040161148690612933565b60405180910390fd5b818160020160006101000a81548173ffffffffffffffffffffffffffffffffffffffff021916908373ffffffffffffffffffffffffffffffffffffffff1602179055508173ffffffffffffffffffffffffffffffffffffffff16837f3738a681a43a0b6a554742a08bae57e0215e8a774217dc2e7de6c9411b6d0ddc60405160405180910390a3505050565b600080600083815260200190815260200160002090506001600581111561154557611544611b16565b5b8160060160009054906101000a900460ff16600581111561156957611568611b16565b5b146115a9576040517f08c379a00000000000000000000000000000000000000000000000000000000081526004016115a09061299f565b60405180910390fd5b600073ffffffffffffffffffffffffffffffffffffffff168160020160009054906101000a900473ffffffffffffffffffffffffffffffffffffffff1673ffffffffffffffffffffffffffffffffffffffff161461163c576040517f08c379a000000000000000000000000000000000000000000000000000000000815260040161163390612a31565b60405180910390fd5b3373ffffffffffffffffffffffffffffffffffffffff168160010160009054906101000a900473ffffffffffffffffffffffffffffffffffffffff1673ffffffffffffffffffffffffffffffffffffffff16036116ce576040517f08c379a00000000000000000000000000000000000000000000000000000000081526004016116c590612ac3565b60405180910390fd5b6003600083815260200190815260200160002060003373ffffffffffffffffffffffffffffffffffffffff1673ffffffffffffffffffffffffffffffffffffffff16815260200190815260200160002060009054906101000a900460ff161561176c576040517f08c379a000000000000000000000000000000000000000000000000000000000815260040161176390612b55565b60405180910390fd5b60026000838152602001908152602001600020339080600181540180825580915050600190039060005260206000200160009091909190916101000a81548173ffffffffffffffffffffffffffffffffffffffff021916908373ffffffffffffffffffffffffffffffffffffffff16021790555060016003600084815260200190815260200160002060003373ffffffffffffffffffffffffffffffffffffffff1673ffffffffffffffffffffffffffffffffffffffff16815260200190815260200160002060006101000a81548160ff0219169083151502179055503373ffffffffffffffffffffffffffffffffffffffff16827fffa837d183240a5f25cbd643a8eade702c0c9c3e186c59c7d929e4f1a3438d8660405160405180910390a35050565b600260205281600052604060002081815481106118ad57600080fd5b906000526020600020016000915091509054906101000a900473ffffffffffffffffffffffffffffffffffffffff1681565b6000604051905090565b600080fd5b600080fd5b6000819050919050565b611906816118f3565b811461191157600080fd5b50565b600081359050611923816118fd565b92915050565b60006020828403121561193f5761193e6118e9565b5b600061194d84828501611914565b91505092915050565b600081519050919050565b600082825260208201905092915050565b6000819050602082019050919050565b600073ffffffffffffffffffffffffffffffffffffffff82169050919050565b60006119ad82611982565b9050919050565b6119bd816119a2565b82525050565b60006119cf83836119b4565b60208301905092915050565b6000602082019050919050565b60006119f382611956565b6119fd8185611961565b9350611a0883611972565b8060005b83811015611a39578151611a2088826119c3565b9750611a2b836119db565b925050600181019050611a0c565b5085935050505092915050565b60006020820190508181036000830152611a6081846119e8565b905092915050565b611a71816118f3565b82525050565b611a80816119a2565b82525050565b600081519050919050565b600082825260208201905092915050565b60005b83811015611ac0578082015181840152602081019050611aa5565b60008484015250505050565b6000601f19601f8301169050919050565b6000611ae882611a86565b611af28185611a91565b9350611b02818560208601611aa2565b611b0b81611acc565b840191505092915050565b7f4e487b7100000000000000000000000000000000000000000000000000000000600052602160045260246000fd5b60068110611b5657611b55611b16565b5b50565b6000819050611b6782611b45565b919050565b6000611b7782611b59565b9050919050565b611b8781611b6c565b82525050565b600061012082019050611ba3600083018c611a68565b611bb0602083018b611a77565b611bbd604083018a611a77565b611bca6060830189611a68565b8181036080830152611bdc8188611add565b905081810360a0830152611bf08187611add565b9050611bff60c0830186611b7e565b611c0c60e0830185611a68565b611c1a610100830184611a68565b9a9950505050505050505050565b600080fd5b600080fd5b7f4e487b7100000000000000000000000000000000000000000000000000000000600052604160045260246000fd5b611c6a82611acc565b810181811067ffffffffffffffff82111715611c8957611c88611c32565b5b80604052505050565b6000611c9c6118df565b9050611ca88282611c61565b919050565b600067ffffffffffffffff821115611cc857611cc7611c32565b5b611cd182611acc565b9050602081019050919050565b82818337600083830152505050565b6000611d00611cfb84611cad565b611c92565b905082815260208101848484011115611d1c57611d1b611c2d565b5b611d27848285611cde565b509392505050565b600082601f830112611d4457611d43611c28565b5b8135611d54848260208601611ced565b91505092915050565b60008060408385031215611d7457611d736118e9565b5b600083013567ffffffffffffffff811115611d9257611d916118ee565b5b611d9e85828601611d2f565b925050602083013567ffffffffffffffff811115611dbf57611dbe6118ee565b5b611dcb85828601611d2f565b9150509250929050565b6000602082019050611dea6000830184611a68565b92915050565b611df9816119a2565b8114611e0457600080fd5b50565b600081359050611e1681611df0565b92915050565b60008060408385031215611e3357611e326118e9565b5b6000611e4185828601611914565b9250506020611e5285828601611e07565b9150509250929050565b60008115159050919050565b611e7181611e5c565b82525050565b6000602082019050611e8c6000830184611e68565b92915050565b60008060408385031215611ea957611ea86118e9565b5b6000611eb785828601611914565b9250506020611ec885828601611914565b9150509250929050565b6000602082019050611ee76000830184611a77565b92915050565b7f4e487b7100000000000000000000000000000000000000000000000000000000600052602260045260246000fd5b60006002820490506001821680611f3457607f821691505b602082108103611f4757611f46611eed565b5b50919050565b7f4f6e6c792074686520636c69656e742063616e2063616e63656c20746869732060008201527f6a6f620000000000000000000000000000000000000000000000000000000000602082015250565b6000611fa9602383611a91565b9150611fb482611f4d565b604082019050919050565b60006020820190508181036000830152611fd881611f9c565b9050919050565b7f4a6f62206d75737420626520696e2046756e6465642073746174757300000000600082015250565b6000612015601c83611a91565b915061202082611fdf565b602082019050919050565b6000602082019050818103600083015261204481612008565b9050919050565b7f43616e6e6f742063616e63656c20696620667265656c616e636572206973206160008201527f737369676e656400000000000000000000000000000000000000000000000000602082015250565b60006120a7602783611a91565b91506120b28261204b565b604082019050919050565b600060208201905081810360008301526120d68161209a565b9050919050565b600081905092915050565b50565b60006120f86000836120dd565b9150612103826120e8565b600082019050919050565b6000612119826120eb565b9150819050919050565b7f5472616e73666572206661696c65640000000000000000000000000000000000600082015250565b6000612159600f83611a91565b915061216482612123565b602082019050919050565b600060208201905081810360008301526121888161214c565b9050919050565b7f4e487b7100000000000000000000000000000000000000000000000000000000600052601160045260246000fd5b60006121c9826118f3565b91507fffffffffffffffffffffffffffffffffffffffffffffffffffffffffffffffff82036121fb576121fa61218f565b5b600182019050919050565b60008190508160005260206000209050919050565b60006020601f8301049050919050565b600082821b905092915050565b6000600883026122687fffffffffffffffffffffffffffffffffffffffffffffffffffffffffffffffff8261222b565b612272868361222b565b95508019841693508086168417925050509392505050565b6000819050919050565b60006122af6122aa6122a5846118f3565b61228a565b6118f3565b9050919050565b6000819050919050565b6122c983612294565b6122dd6122d5826122b6565b848454612238565b825550505050565b600090565b6122f26122e5565b6122fd8184846122c0565b505050565b5b81811015612321576123166000826122ea565b600181019050612303565b5050565b601f8211156123665761233781612206565b6123408461221b565b8101602085101561234f578190505b61236361235b8561221b565b830182612302565b50505b505050565b600082821c905092915050565b60006123896000198460080261236b565b1980831691505092915050565b60006123a28383612378565b9150826002028217905092915050565b6123bb82611a86565b67ffffffffffffffff8111156123d4576123d3611c32565b5b6123de8254611f1c565b6123e9828285612325565b600060209050601f83116001811461241c576000841561240a578287015190505b6124148582612396565b86555061247c565b601f19841661242a86612206565b60005b828110156124525784890151825560018201915060208501945060208101905061242d565b8683101561246f578489015161246b601f891682612378565b8355505b6001600288020188555050505b505050505050565b6000819050919050565b60006124a96124a461249f84612484565b61228a565b6118f3565b9050919050565b6124b98161248e565b82525050565b600060408201905081810360008301526124d98185611add565b90506124e860208301846124b0565b9392505050565b7f4f6e6c792074686520636c69656e742063616e2066756e642074686973206a6f60008201527f6200000000000000000000000000000000000000000000000000000000000000602082015250565b600061254b602183611a91565b9150612556826124ef565b604082019050919050565b6000602082019050818103600083015261257a8161253e565b9050919050565b7f4a6f62206d75737420626520696e204372656174656420737461747573000000600082015250565b60006125b7601d83611a91565b91506125c282612581565b602082019050919050565b600060208201905081810360008301526125e6816125aa565b9050919050565b7f416d6f756e74206d7573742062652067726561746572207468616e2030000000600082015250565b6000612623601d83611a91565b915061262e826125ed565b602082019050919050565b6000602082019050818103600083015261265281612616565b9050919050565b7f4f6e6c792074686520636c69656e742063616e20636f6d706c6574652074686960008201527f73206a6f62000000000000000000000000000000000000000000000000000000602082015250565b60006126b5602583611a91565b91506126c082612659565b604082019050919050565b600060208201905081810360008301526126e4816126a8565b9050919050565b7f4a6f62206d757374206861766520616e2061737369676e656420667265656c6160008201527f6e63657200000000000000000000000000000000000000000000000000000000602082015250565b6000612747602483611a91565b9150612752826126eb565b604082019050919050565b600060208201905081810360008301526127768161273a565b9050919050565b7f4f6e6c792074686520636c69656e742063616e2061737369676e20612066726560008201527f656c616e63657200000000000000000000000000000000000000000000000000602082015250565b60006127d9602783611a91565b91506127e48261277d565b604082019050919050565b60006020820190508181036000830152612808816127cc565b9050919050565b7f4a6f62206d7573742062652066756e6465642066697273740000000000000000600082015250565b6000612845601883611a91565b91506128508261280f565b602082019050919050565b6000602082019050818103600083015261287481612838565b9050919050565b7f496e76616c696420667265656c616e6365722061646472657373000000000000600082015250565b60006128b1601a83611a91565b91506128bc8261287b565b602082019050919050565b600060208201905081810360008301526128e0816128a4565b9050919050565b7f436c69656e742063616e6e6f742062652074686520667265656c616e63657200600082015250565b600061291d601f83611a91565b9150612928826128e7565b602082019050919050565b6000602082019050818103600083015261294c81612910565b9050919050565b7f4a6f62206d7573742062652066756e64656420746f206170706c790000000000600082015250565b6000612989601b83611a91565b915061299482612953565b602082019050919050565b600060208201905081810360008301526129b88161297c565b9050919050565b7f4a6f6220616c72656164792068617320616e2061737369676e6564206672656560008201527f6c616e6365720000000000000000000000000000000000000000000000000000602082015250565b6000612a1b602683611a91565b9150612a26826129bf565b604082019050919050565b60006020820190508181036000830152612a4a81612a0e565b9050919050565b7f436c69656e742063616e6e6f74206170706c7920666f72207468656972206f7760008201527f6e206a6f62000000000000000000000000000000000000000000000000000000602082015250565b6000612aad602583611a91565b9150612ab882612a51565b604082019050919050565b60006020820190508181036000830152612adc81612aa0565b9050919050565b7f596f75206861766520616c7265616479206170706c69656420666f722074686960008201527f73206a6f62000000000000000000000000000000000000000000000000000000602082015250565b6000612b3f602583611a91565b9150612b4a82612ae3565b604082019050919050565b60006020820190508181036000830152612b6e81612b32565b905091905056fea2646970667358221220162a7d350a4ee433518fdc8c59f8c2f2c33b7f3cf6d4498453c167e6aecc966864736f6c63430008140033",
  "linkReferences": {},
  "deployedLinkReferences": {}
}