{
  "_format": "hh-sol-artifact-1",
  "contractName": "FreelancerEscrow",
  "sourceName": "contracts/FreelancerEscrow.sol",
  "abi": [
    {
      "anonymous": false,
      "inputs": [
        {
          "indexed": true,
          "internalType": "uint256",
          "name": "jobId",
          "type": "uint256"
        },
        {
          "indexed": true,
          "internalType": "address",
          "name": "freelancer",
          "type": "address"
        }
      ],
      "name": "JobAssigned",
      "type": "event"
    },
    {
      "anonymous": false,
      "inputs": [
        {
          "indexed": true,
          "internalType": "uint256",
          "name": "jobId",
          "type": "uint256"
        }
      ],
      "name": "JobCancelled",
      "type": "event"
    },
    {
      "anonymous": false,
      "inputs": [
        {
          "indexed": true,
          "internalType": "uint256",
          "name": "jobId",
          "type": "uint256"
        }
      ],
      "name": "JobCompleted",
      "type": "event"
    },
    {
      "anonymous": false,
      "inputs": [
        {
          "indexed": true,
          "internalType": "uint256",
          "name": "jobId",
          "type": "uint256"
        },
        {
          "indexed": true,
          "internalType": "address",
          "name": "client",
          "type": "address"
        },
        {
          "indexed": false,
          "internalType": "string",
          "name": "title",
          "type": "string"
        },
        {
          "indexed": false,
          "internalType": "uint256",
          "name": "amount",
          "type": "uint256"
        }
      ],
      "name": "JobCreated",
      "type": "event"
    },
    {
      "anonymous": false,
      "inputs": [
        {
          "indexed": true,
          "internalType": "uint256",
          "name": "jobId",
          "type": "uint256"
        }
      ],
      "name": "JobDisputed",
      "type": "event"
    },
    {
      "anonymous": false,
      "inputs": [
        {
          "indexed": true,
          "internalType": "uint256",
          "name": "jobId",
          "type": "uint256"
        }
      ],
      "name": "JobRefunded",
      "type": "event"
    },
    {
      "inputs": [
        {
          "internalType": "uint256",
          "name": "_jobId",
          "type": "uint256"
        },
        {
          "internalType": "address",
          "name": "_freelancer",
          "type": "address"
        }
      ],
      "name": "assignFreelancer",
      "outputs": [],
      "stateMutability": "nonpayable",
      "type": "function"
    },
    {
      "inputs": [
        {
          "internalType": "uint256",
          "name": "_jobId",
          "type": "uint256"
        }
      ],
      "name": "cancelJob",
      "outputs": [],
      "stateMutability": "nonpayable",
      "type": "function"
    },
    {
      "inputs": [
        {
          "internalType": "uint256",
          "name": "_jobId",
          "type": "uint256"
        }
      ],
      "name": "completeJob",
      "outputs": [],
      "stateMutability": "nonpayable",
      "type": "function"
    },
    {
      "inputs": [
        {
          "internalType": "string",
          "name": "_title",
          "type": "string"
        },
        {
          "internalType": "string",
          "name": "_description",
          "type": "string"
        }
      ],
      "name": "createJob",
      "outputs": [
        {
          "internalType": "uint256",
          "name": "",
          "type": "uint256"
        }
      ],
      "stateMutability": "payable",
      "type": "function"
    },
    {
      "inputs": [
        {
          "internalType": "uint256",
          "name": "_jobId",
          "type": "uint256"
        }
      ],
      "name": "getJob",
      "outputs": [
        {
          "internalType": "uint256",
          "name": "id",
          "type": "uint256"
        },
        {
          "internalType": "address",
          "name": "client",
          "type": "address"
        },
        {
          "internalType": "address",
          "name": "freelancer",
          "type": "address"
        },
        {
          "internalType": "uint256",
          "name": "amount",
          "type": "uint256"
        },
        {
          "internalType": "string",
          "name": "title",
          "type": "string"
        },
        {
          "internalType": "string",
          "name": "description",
          "type": "string"
        },
        {
          "internalType": "enum FreelancerEscrow.JobStatus",
          "name": "status",
          "type": "uint8"
        },
        {
          "internalType": "uint256",
          "name": "createdAt",
          "type": "uint256"
        },
        {
          "internalType": "uint256",
          "name": "completedAt",
          "type": "uint256"
        }
      ],
      "stateMutability": "view",
      "type": "function"
    },
    {
      "inputs": [],
      "name": "getJobCount",
      "outputs": [
        {
          "internalType": "uint256",
          "name": "",
          "type": "uint256"
        }
      ],
      "stateMutability": "view",
      "type": "function"
    },
    {
      "inputs": [],
      "name": "jobCount",
      "outputs": [
        {
          "internalType": "uint256",
          "name": "",
          "type": "uint256"
        }
      ],
      "stateMutability": "view",
      "type": "function"
    },
    {
      "inputs": [
        {
          "internalType": "uint256",
          "name": "",
          "type": "uint256"
        }
      ],
      "name": "jobs",
      "outputs": [
        {
          "internalType": "uint256",
          "name": "id",
          "type": "uint256"
        },
        {
          "internalType": "address",
          "name": "client",
          "type": "address"
        },
        {
          "internalType": "address",
          "name": "freelancer",
          "type": "address"
        },
        {
          "internalType": "uint256",
          "name": "amount",
          "type": "uint256"
        },
        {
          "internalType": "string",
          "name": "title",
          "type": "string"
        },
        {
          "internalType": "string",
          "name": "description",
          "type": "string"
        },
        {
          "internalType": "enum FreelancerEscrow.JobStatus",
          "name": "status",
          "type": "uint8"
        },
        {
          "internalType": "uint256",
          "name": "createdAt",
          "type": "uint256"
        },
        {
          "internalType": "uint256",
          "name": "completedAt",
          "type": "uint256"
        }
      ],
      "stateMutability": "view",
      "type": "function"
    }
  ],
  "bytecode": "0x608060405234801561001057600080fd5b506120d5806100206000396000f3fe60806040526004361061007b5760003560e01c8063a1c0d32f1161004e578063a1c0d32f14610149578063b02b4a2f14610172578063bf22c4571461019d578063c949756c146101e25761007b565b8063180aedf3146100805780631dffa3dc146100c55780632b1ed581146100ee5780634c5d8a0f1461011e575b600080fd5b34801561008c57600080fd5b506100a760048036038101906100a291906112b3565b61020b565b6040516100bc99989796959493929190611437565b60405180910390f35b3480156100d157600080fd5b506100ec60048036038101906100e791906112b3565b6103b6565b005b61010860048036038101906101039190611607565b610707565b604051610115919061167f565b60405180910390f35b34801561012a57600080fd5b5061013361093c565b604051610140919061167f565b60405180910390f35b34801561015557600080fd5b50610170600480360381019061016b91906112b3565b610942565b005b34801561017e57600080fd5b50610187610c9c565b604051610194919061167f565b60405180910390f35b3480156101a957600080fd5b506101c460048036038101906101bf91906112b3565b610ca6565b6040516101d999989796959493929190611437565b60405180910390f35b3480156101ee57600080fd5b50610209600480360381019061020491906116c6565b610ebe565b005b60006020528060005260406000206000915090508060000154908060010160009054906101000a900473ffffffffffffffffffffffffffffffffffffffff16908060020160009054906101000a900473ffffffffffffffffffffffffffffffffffffffff169080600301549080600401805461028690611735565b80601f01602080910402602001604051908101604052809291908181526020018280546102b290611735565b80156102ff5780601f106102d4576101008083540402835291602001916102ff565b820191906000526020600020905b8154815290600101906020018083116102e257829003601f168201915b50505050509080600501805461031490611735565b80601f016020809104026020016040519081016040528092919081815260200182805461034090611735565b801561038d5780601f106103625761010080835404028352916020019161038d565b820191906000526020600020905b81548152906001019060200180831161037057829003601f168201915b5050505050908060060160009054906101000a900460ff16908060070154908060080154905089565b806000806000838152602001908152602001600020600301541161040f576040517f08c379a0000000000000000000000000000000000000000000000000000000008152600401610406906117b2565b60405180910390fd5b60016005811115610423576104226113c0565b5b60008083815260200190815260200160002060060160009054906101000a900460ff166005811115610458576104576113c0565b5b14610498576040517f08c379a000000000000000000000000000000000000000000000000000000000815260040161048f9061181e565b60405180910390fd5b600080600084815260200190815260200160002090503373ffffffffffffffffffffffffffffffffffffffff168160010160009054906101000a900473ffffffffffffffffffffffffffffffffffffffff1673ffffffffffffffffffffffffffffffffffffffff1614610540576040517f08c379a0000000000000000000000000000000000000000000000000000000008152600401610537906118b0565b60405180910390fd5b600073ffffffffffffffffffffffffffffffffffffffff168160020160009054906101000a900473ffffffffffffffffffffffffffffffffffffffff1673ffffffffffffffffffffffffffffffffffffffff16146105d3576040517f08c379a00000000000000000000000000000000000000000000000000000000081526004016105ca90611942565b60405180910390fd5b60008160010160009054906101000a900473ffffffffffffffffffffffffffffffffffffffff1673ffffffffffffffffffffffffffffffffffffffff16826003015460405161062190611993565b60006040518083038185875af1925050503d806000811461065e576040519150601f19603f3d011682016040523d82523d6000602084013e610663565b606091505b50509050806106a7576040517f08c379a000000000000000000000000000000000000000000000000000000000815260040161069e906119f4565b60405180910390fd5b60058260060160006101000a81548160ff021916908360058111156106cf576106ce6113c0565b5b0217905550837f58243f872c550ad02802199ade99eb4250f6bb19e9abbf2d3de7b969c0eb5e4f60405160405180910390a250505050565b6000806001600081548092919061071d90611a43565b919050559050600034905060008082111561073757600190505b6040518061012001604052808481526020013373ffffffffffffffffffffffffffffffffffffffff168152602001600073ffffffffffffffffffffffffffffffffffffffff1681526020018381526020018781526020018681526020018260058111156107a7576107a66113c0565b5b815260200142815260200160008152506000808581526020019081526020016000206000820151816000015560208201518160010160006101000a81548173ffffffffffffffffffffffffffffffffffffffff021916908373ffffffffffffffffffffffffffffffffffffffff16021790555060408201518160020160006101000a81548173ffffffffffffffffffffffffffffffffffffffff021916908373ffffffffffffffffffffffffffffffffffffffff1602179055506060820151816003015560808201518160040190816108809190611c37565b5060a08201518160050190816108969190611c37565b5060c08201518160060160006101000a81548160ff021916908360058111156108c2576108c16113c0565b5b021790555060e0820151816007015561010082015181600801559050503373ffffffffffffffffffffffffffffffffffffffff16837fe2664ff85acbefce4793e83fe4a10e88680b3172a3e401c7946d7cfb8f19ebdb8885604051610928929190611d09565b60405180910390a382935050505092915050565b60015481565b806000806000838152602001908152602001600020600301541161099b576040517f08c379a0000000000000000000000000000000000000000000000000000000008152600401610992906117b2565b60405180910390fd5b600160058111156109af576109ae6113c0565b5b60008083815260200190815260200160002060060160009054906101000a900460ff1660058111156109e4576109e36113c0565b5b14610a24576040517f08c379a0000000000000000000000000000000000000000000000000000000008152600401610a1b9061181e565b60405180910390fd5b600080600084815260200190815260200160002090503373ffffffffffffffffffffffffffffffffffffffff168160010160009054906101000a900473ffffffffffffffffffffffffffffffffffffffff1673ffffffffffffffffffffffffffffffffffffffff1614610acc576040517f08c379a0000000000000000000000000000000000000000000000000000000008152600401610ac390611dab565b60405180910390fd5b600073ffffffffffffffffffffffffffffffffffffffff168160020160009054906101000a900473ffffffffffffffffffffffffffffffffffffffff1673ffffffffffffffffffffffffffffffffffffffff1603610b5f576040517f08c379a0000000000000000000000000000000000000000000000000000000008152600401610b5690611e3d565b60405180910390fd5b60008160020160009054906101000a900473ffffffffffffffffffffffffffffffffffffffff1673ffffffffffffffffffffffffffffffffffffffff168260030154604051610bad90611993565b60006040518083038185875af1925050503d8060008114610bea576040519150601f19603f3d011682016040523d82523d6000602084013e610bef565b606091505b5050905080610c33576040517f08c379a0000000000000000000000000000000000000000000000000000000008152600401610c2a906119f4565b60405180910390fd5b60028260060160006101000a81548160ff02191690836005811115610c5b57610c5a6113c0565b5b0217905550428260080181905550837f02244c8529cb95e213ee542e76e7776342b3dabd10203d01472bbf4441be892960405160405180910390a250505050565b6000600154905090565b60008060008060608060008060006001548a10610cf8576040517f08c379a0000000000000000000000000000000000000000000000000000000008152600401610cef90611ea9565b60405180910390fd5b60008060008c8152602001908152602001600020905080600001548160010160009054906101000a900473ffffffffffffffffffffffffffffffffffffffff168260020160009054906101000a900473ffffffffffffffffffffffffffffffffffffffff16836003015484600401856005018660060160009054906101000a900460ff1687600701548860080154848054610d9290611735565b80601f0160208091040260200160405190810160405280929190818152602001828054610dbe90611735565b8015610e0b5780601f10610de057610100808354040283529160200191610e0b565b820191906000526020600020905b815481529060010190602001808311610dee57829003601f168201915b50505050509450838054610e1e90611735565b80601f0160208091040260200160405190810160405280929190818152602001828054610e4a90611735565b8015610e975780601f10610e6c57610100808354040283529160200191610e97565b820191906000526020600020905b815481529060010190602001808311610e7a57829003601f168201915b50505050509350995099509950995099509950995099509950509193959799909294969850565b8160008060008381526020019081526020016000206003015411610f17576040517f08c379a0000000000000000000000000000000000000000000000000000000008152600401610f0e906117b2565b60405180910390fd5b60016005811115610f2b57610f2a6113c0565b5b60008083815260200190815260200160002060060160009054906101000a900460ff166005811115610f6057610f5f6113c0565b5b14610fa0576040517f08c379a0000000000000000000000000000000000000000000000000000000008152600401610f979061181e565b60405180910390fd5b600080600085815260200190815260200160002090503373ffffffffffffffffffffffffffffffffffffffff168160010160009054906101000a900473ffffffffffffffffffffffffffffffffffffffff1673ffffffffffffffffffffffffffffffffffffffff1614611048576040517f08c379a000000000000000000000000000000000000000000000000000000000815260040161103f90611f3b565b60405180910390fd5b600073ffffffffffffffffffffffffffffffffffffffff168373ffffffffffffffffffffffffffffffffffffffff16036110b7576040517f08c379a00000000000000000000000000000000000000000000000000000000081526004016110ae90611fa7565b60405180910390fd5b8060010160009054906101000a900473ffffffffffffffffffffffffffffffffffffffff1673ffffffffffffffffffffffffffffffffffffffff168373ffffffffffffffffffffffffffffffffffffffff1603611149576040517f08c379a000000000000000000000000000000000000000000000000000000000815260040161114090612013565b60405180910390fd5b600073ffffffffffffffffffffffffffffffffffffffff168160020160009054906101000a900473ffffffffffffffffffffffffffffffffffffffff1673ffffffffffffffffffffffffffffffffffffffff16146111dc576040517f08c379a00000000000000000000000000000000000000000000000000000000081526004016111d39061207f565b60405180910390fd5b828160020160006101000a81548173ffffffffffffffffffffffffffffffffffffffff021916908373ffffffffffffffffffffffffffffffffffffffff1602179055508273ffffffffffffffffffffffffffffffffffffffff16847f3738a681a43a0b6a554742a08bae57e0215e8a774217dc2e7de6c9411b6d0ddc60405160405180910390a350505050565b6000604051905090565b600080fd5b600080fd5b6000819050919050565b6112908161127d565b811461129b57600080fd5b50565b6000813590506112ad81611287565b92915050565b6000602082840312156112c9576112c8611273565b5b60006112d78482850161129e565b91505092915050565b6112e98161127d565b82525050565b600073ffffffffffffffffffffffffffffffffffffffff82169050919050565b600061131a826112ef565b9050919050565b61132a8161130f565b82525050565b600081519050919050565b600082825260208201905092915050565b60005b8381101561136a57808201518184015260208101905061134f565b60008484015250505050565b6000601f19601f8301169050919050565b600061139282611330565b61139c818561133b565b93506113ac81856020860161134c565b6113b581611376565b840191505092915050565b7f4e487b7100000000000000000000000000000000000000000000000000000000600052602160045260246000fd5b60068110611400576113ff6113c0565b5b50565b6000819050611411826113ef565b919050565b600061142182611403565b9050919050565b61143181611416565b82525050565b60006101208201905061144d600083018c6112e0565b61145a602083018b611321565b611467604083018a611321565b61147460608301896112e0565b81810360808301526114868188611387565b905081810360a083015261149a8187611387565b90506114a960c0830186611428565b6114b660e08301856112e0565b6114c46101008301846112e0565b9a9950505050505050505050565b600080fd5b600080fd5b7f4e487b7100000000000000000000000000000000000000000000000000000000600052604160045260246000fd5b61151482611376565b810181811067ffffffffffffffff82111715611533576115326114dc565b5b80604052505050565b6000611546611269565b9050611552828261150b565b919050565b600067ffffffffffffffff821115611572576115716114dc565b5b61157b82611376565b9050602081019050919050565b82818337600083830152505050565b60006115aa6115a584611557565b61153c565b9050828152602081018484840111156115c6576115c56114d7565b5b6115d1848285611588565b509392505050565b600082601f8301126115ee576115ed6114d2565b5b81356115fe848260208601611597565b91505092915050565b6000806040838503121561161e5761161d611273565b5b600083013567ffffffffffffffff81111561163c5761163b611278565b5b611648858286016115d9565b925050602083013567ffffffffffffffff81111561166957611668611278565b5b611675858286016115d9565b9150509250929050565b600060208201905061169460008301846112e0565b92915050565b6116a38161130f565b81146116ae57600080fd5b50565b6000813590506116c08161169a565b92915050565b600080604083850312156116dd576116dc611273565b5b60006116eb8582860161129e565b92505060206116fc858286016116b1565b9150509250929050565b7f4e487b7100000000000000000000000000000000000000000000000000000000600052602260045260246000fd5b6000600282049050600182168061174d57607f821691505b6020821081036117605761175f611706565b5b50919050565b7f4a6f62206d7573742062652066756e6465640000000000000000000000000000600082015250565b600061179c60128361133b565b91506117a782611766565b602082019050919050565b600060208201905081810360008301526117cb8161178f565b9050919050565b7f4a6f6220737461747573206d7573742062652046756e64656400000000000000600082015250565b600061180860198361133b565b9150611813826117d2565b602082019050919050565b60006020820190508181036000830152611837816117fb565b9050919050565b7f4f6e6c792074686520636c69656e742063616e2063616e63656c20746869732060008201527f6a6f620000000000000000000000000000000000000000000000000000000000602082015250565b600061189a60238361133b565b91506118a58261183e565b604082019050919050565b600060208201905081810360008301526118c98161188d565b9050919050565b7f43616e6e6f742063616e63656c20696620667265656c616e636572206973206160008201527f737369676e656400000000000000000000000000000000000000000000000000602082015250565b600061192c60278361133b565b9150611937826118d0565b604082019050919050565b6000602082019050818103600083015261195b8161191f565b9050919050565b600081905092915050565b50565b600061197d600083611962565b91506119888261196d565b600082019050919050565b600061199e82611970565b9150819050919050565b7f5472616e73666572206661696c65640000000000000000000000000000000000600082015250565b60006119de600f8361133b565b91506119e9826119a8565b602082019050919050565b60006020820190508181036000830152611a0d816119d1565b9050919050565b7f4e487b7100000000000000000000000000000000000000000000000000000000600052601160045260246000fd5b6000611a4e8261127d565b91507fffffffffffffffffffffffffffffffffffffffffffffffffffffffffffffffff8203611a8057611a7f611a14565b5b600182019050919050565b60008190508160005260206000209050919050565b60006020601f8301049050919050565b600082821b905092915050565b600060088302611aed7fffffffffffffffffffffffffffffffffffffffffffffffffffffffffffffffff82611ab0565b611af78683611ab0565b95508019841693508086168417925050509392505050565b6000819050919050565b6000611b34611b2f611b2a8461127d565b611b0f565b61127d565b9050919050565b6000819050919050565b611b4e83611b19565b611b62611b5a82611b3b565b848454611abd565b825550505050565b600090565b611b77611b6a565b611b82818484611b45565b505050565b5b81811015611ba657611b9b600082611b6f565b600181019050611b88565b5050565b601f821115611beb57611bbc81611a8b565b611bc584611aa0565b81016020851015611bd4578190505b611be8611be085611aa0565b830182611b87565b50505b505050565b600082821c905092915050565b6000611c0e60001984600802611bf0565b1980831691505092915050565b6000611c278383611bfd565b9150826002028217905092915050565b611c4082611330565b67ffffffffffffffff811115611c5957611c586114dc565b5b611c638254611735565b611c6e828285611baa565b600060209050601f831160018114611ca15760008415611c8f578287015190505b611c998582611c1b565b865550611d01565b601f198416611caf86611a8b565b60005b82811015611cd757848901518255600182019150602085019450602081019050611cb2565b86831015611cf45784890151611cf0601f891682611bfd565b8355505b6001600288020188555050505b505050505050565b60006040820190508181036000830152611d238185611387565b9050611d3260208301846112e0565b9392505050565b7f4f6e6c792074686520636c69656e742063616e20636f6d706c6574652074686960008201527f73206a6f62000000000000000000000000000000000000000000000000000000602082015250565b6000611d9560258361133b565b9150611da082611d39565b604082019050919050565b60006020820190508181036000830152611dc481611d88565b9050919050565b7f4a6f62206d757374206861766520616e2061737369676e656420667265656c6160008201527f6e63657200000000000000000000000000000000000000000000000000000000602082015250565b6000611e2760248361133b565b9150611e3282611dcb565b604082019050919050565b60006020820190508181036000830152611e5681611e1a565b9050919050565b7f4a6f6220646f6573206e6f742065786973740000000000000000000000000000600082015250565b6000611e9360128361133b565b9150611e9e82611e5d565b602082019050919050565b60006020820190508181036000830152611ec281611e86565b9050919050565b7f4f6e6c792074686520636c69656e742063616e2061737369676e20612066726560008201527f656c616e63657200000000000000000000000000000000000000000000000000602082015250565b6000611f2560278361133b565b9150611f3082611ec9565b604082019050919050565b60006020820190508181036000830152611f5481611f18565b9050919050565b7f496e76616c696420667265656c616e6365722061646472657373000000000000600082015250565b6000611f91601a8361133b565b9150611f9c82611f5b565b602082019050919050565b60006020820190508181036000830152611fc081611f84565b9050919050565b7f436c69656e742063616e6e6f742062652074686520667265656c616e63657200600082015250565b6000611ffd601f8361133b565b915061200882611fc7565b602082019050919050565b6000602082019050818103600083015261202c81611ff0565b9050919050565b7f467265656c616e63657220616c72656164792061737369676e65640000000000600082015250565b6000612069601b8361133b565b915061207482612033565b602082019050919050565b600060208201905081810360008301526120988161205c565b905091905056fea26469706673582212204df0d712d8da21d908f35c59107f607f5d1b5735e7a14900ccfa9c98ad943ce864736f6c63430008140033",
  "linkReferences": {},
  "deployedLinkReferences": {}
}