{
  "_format": "hh-sol-artifact-1",
  "contractName": "FreelancerEscrow",
  "sourceName": "contracts/FreelancerEscrow.sol",
  "abi": [
    {
      "anonymous": false,
      "inputs": [
        {
          "indexed": true,
          "internalType": "uint256",
          "name": "jobId",
          "type": "uint256"
        },
        {
          "indexed": true,
          "internalType": "address",
          "name": "freelancer",
          "type": "address"
        }
      ],
      "name": "JobAssigned",
      "type": "event"
    },
    {
      "anonymous": false,
      "inputs": [
        {
          "indexed": true,
          "internalType": "uint256",
          "name": "jobId",
          "type": "uint256"
        }
      ],
      "name": "JobCancelled",
      "type": "event"
    },
    {
      "anonymous": false,
      "inputs": [
        {
          "indexed": true,
          "internalType": "uint256",
          "name": "jobId",
          "type": "uint256"
        }
      ],
      "name": "JobCompleted",
      "type": "event"
    },
    {
      "anonymous": false,
      "inputs": [
        {
          "indexed": true,
          "internalType": "uint256",
          "name": "jobId",
          "type": "uint256"
        },
        {
          "indexed": true,
          "internalType": "address",
          "name": "client",
          "type": "address"
        },
        {
          "indexed": false,
          "internalType": "string",
          "name": "title",
          "type": "string"
        },
        {
          "indexed": false,
          "internalType": "uint256",
          "name": "amount",
          "type": "uint256"
        }
      ],
      "name": "JobCreated",
      "type": "event"
    },
    {
      "anonymous": false,
      "inputs": [
        {
          "indexed": true,
          "internalType": "uint256",
          "name": "jobId",
          "type": "uint256"
        }
      ],
      "name": "JobDisputed",
      "type": "event"
    },
    {
      "anonymous": false,
      "inputs": [
        {
          "indexed": true,
          "internalType": "uint256",
          "name": "jobId",
          "type": "uint256"
        },
        {
          "indexed": true,
          "internalType": "address",
          "name": "client",
          "type": "address"
        }
      ],
      "name": "JobFunded",
      "type": "event"
    },
    {
      "anonymous": false,
      "inputs": [
        {
          "indexed": true,
          "internalType": "uint256",
          "name": "jobId",
          "type": "uint256"
        }
      ],
      "name": "JobRefunded",
      "type": "event"
    },
    {
      "inputs": [
        {
          "internalType": "uint256",
          "name": "_jobId",
          "type": "uint256"
        },
        {
          "internalType": "address",
          "name": "_freelancer",
          "type": "address"
        }
      ],
      "name": "assignFreelancer",
      "outputs": [],
      "stateMutability": "nonpayable",
      "type": "function"
    },
    {
      "inputs": [
        {
          "internalType": "uint256",
          "name": "_jobId",
          "type": "uint256"
        }
      ],
      "name": "cancelJob",
      "outputs": [],
      "stateMutability": "nonpayable",
      "type": "function"
    },
    {
      "inputs": [
        {
          "internalType": "uint256",
          "name": "_jobId",
          "type": "uint256"
        }
      ],
      "name": "completeJob",
      "outputs": [],
      "stateMutability": "nonpayable",
      "type": "function"
    },
    {
      "inputs": [
        {
          "internalType": "string",
          "name": "_title",
          "type": "string"
        },
        {
          "internalType": "string",
          "name": "_description",
          "type": "string"
        }
      ],
      "name": "createJob",
      "outputs": [
        {
          "internalType": "uint256",
          "name": "",
          "type": "uint256"
        }
      ],
      "stateMutability": "nonpayable",
      "type": "function"
    },
    {
      "inputs": [
        {
          "internalType": "uint256",
          "name": "_jobId",
          "type": "uint256"
        }
      ],
      "name": "fundJob",
      "outputs": [],
      "stateMutability": "payable",
      "type": "function"
    },
    {
      "inputs": [
        {
          "internalType": "uint256",
          "name": "_jobId",
          "type": "uint256"
        }
      ],
      "name": "getJob",
      "outputs": [
        {
          "internalType": "uint256",
          "name": "id",
          "type": "uint256"
        },
        {
          "internalType": "address",
          "name": "client",
          "type": "address"
        },
        {
          "internalType": "address",
          "name": "freelancer",
          "type": "address"
        },
        {
          "internalType": "uint256",
          "name": "amount",
          "type": "uint256"
        },
        {
          "internalType": "string",
          "name": "title",
          "type": "string"
        },
        {
          "internalType": "string",
          "name": "description",
          "type": "string"
        },
        {
          "internalType": "enum FreelancerEscrow.JobStatus",
          "name": "status",
          "type": "uint8"
        },
        {
          "internalType": "uint256",
          "name": "createdAt",
          "type": "uint256"
        },
        {
          "internalType": "uint256",
          "name": "completedAt",
          "type": "uint256"
        }
      ],
      "stateMutability": "view",
      "type": "function"
    },
    {
      "inputs": [],
      "name": "getJobCount",
      "outputs": [
        {
          "internalType": "uint256",
          "name": "",
          "type": "uint256"
        }
      ],
      "stateMutability": "view",
      "type": "function"
    },
    {
      "inputs": [],
      "name": "jobCount",
      "outputs": [
        {
          "internalType": "uint256",
          "name": "",
          "type": "uint256"
        }
      ],
      "stateMutability": "view",
      "type": "function"
    },
    {
      "inputs": [
        {
          "internalType": "uint256",
          "name": "",
          "type": "uint256"
        }
      ],
      "name": "jobs",
      "outputs": [
        {
          "internalType": "uint256",
          "name": "id",
          "type": "uint256"
        },
        {
          "internalType": "address",
          "name": "client",
          "type": "address"
        },
        {
          "internalType": "address",
          "name": "freelancer",
          "type": "address"
        },
        {
          "internalType": "uint256",
          "name": "amount",
          "type": "uint256"
        },
        {
          "internalType": "string",
          "name": "title",
          "type": "string"
        },
        {
          "internalType": "string",
          "name": "description",
          "type": "string"
        },
        {
          "internalType": "enum FreelancerEscrow.JobStatus",
          "name": "status",
          "type": "uint8"
        },
        {
          "internalType": "uint256",
          "name": "createdAt",
          "type": "uint256"
        },
        {
          "internalType": "uint256",
          "name": "completedAt",
          "type": "uint256"
        }
      ],
      "stateMutability": "view",
      "type": "function"
    }
  ],
  "bytecode": "0x608060405234801561001057600080fd5b50612268806100206000396000f3fe6080604052600436106100865760003560e01c80638d22b863116100595780638d22b86314610161578063a1c0d32f1461017d578063b02b4a2f146101a6578063bf22c457146101d1578063c949756c1461021657610086565b8063180aedf31461008b5780631dffa3dc146100d05780632b1ed581146100f95780634c5d8a0f14610136575b600080fd5b34801561009757600080fd5b506100b260048036038101906100ad9190611379565b61023f565b6040516100c7999897969594939291906114fd565b60405180910390f35b3480156100dc57600080fd5b506100f760048036038101906100f29190611379565b6103ea565b005b34801561010557600080fd5b50610120600480360381019061011b91906116cd565b6106d0565b60405161012d9190611745565b60405180910390f35b34801561014257600080fd5b5061014b6108f2565b6040516101589190611745565b60405180910390f35b61017b60048036038101906101769190611379565b6108f8565b005b34801561018957600080fd5b506101a4600480360381019061019f9190611379565b610ad9565b005b3480156101b257600080fd5b506101bb610dc8565b6040516101c89190611745565b60405180910390f35b3480156101dd57600080fd5b506101f860048036038101906101f39190611379565b610dd2565b60405161020d999897969594939291906114fd565b60405180910390f35b34801561022257600080fd5b5061023d6004803603810190610238919061178c565b611082565b005b60006020528060005260406000206000915090508060000154908060010160009054906101000a900473ffffffffffffffffffffffffffffffffffffffff16908060020160009054906101000a900473ffffffffffffffffffffffffffffffffffffffff16908060030154908060040180546102ba906117fb565b80601f01602080910402602001604051908101604052809291908181526020018280546102e6906117fb565b80156103335780601f1061030857610100808354040283529160200191610333565b820191906000526020600020905b81548152906001019060200180831161031657829003601f168201915b505050505090806005018054610348906117fb565b80601f0160208091040260200160405190810160405280929190818152602001828054610374906117fb565b80156103c15780601f10610396576101008083540402835291602001916103c1565b820191906000526020600020905b8154815290600101906020018083116103a457829003601f168201915b5050505050908060060160009054906101000a900460ff16908060070154908060080154905089565b600080600083815260200190815260200160002090503373ffffffffffffffffffffffffffffffffffffffff168160010160009054906101000a900473ffffffffffffffffffffffffffffffffffffffff1673ffffffffffffffffffffffffffffffffffffffff1614610492576040517f08c379a00000000000000000000000000000000000000000000000000000000081526004016104899061189e565b60405180910390fd5b600160058111156104a6576104a5611486565b5b8160060160009054906101000a900460ff1660058111156104ca576104c9611486565b5b1461050a576040517f08c379a00000000000000000000000000000000000000000000000000000000081526004016105019061190a565b60405180910390fd5b600073ffffffffffffffffffffffffffffffffffffffff168160020160009054906101000a900473ffffffffffffffffffffffffffffffffffffffff1673ffffffffffffffffffffffffffffffffffffffff161461059d576040517f08c379a00000000000000000000000000000000000000000000000000000000081526004016105949061199c565b60405180910390fd5b60008160010160009054906101000a900473ffffffffffffffffffffffffffffffffffffffff1673ffffffffffffffffffffffffffffffffffffffff1682600301546040516105eb906119ed565b60006040518083038185875af1925050503d8060008114610628576040519150601f19603f3d011682016040523d82523d6000602084013e61062d565b606091505b5050905080610671576040517f08c379a000000000000000000000000000000000000000000000000000000000815260040161066890611a4e565b60405180910390fd5b60058260060160006101000a81548160ff0219169083600581111561069957610698611486565b5b0217905550827f58243f872c550ad02802199ade99eb4250f6bb19e9abbf2d3de7b969c0eb5e4f60405160405180910390a2505050565b600080600160008154809291906106e690611a9d565b9190505590506040518061012001604052808281526020013373ffffffffffffffffffffffffffffffffffffffff168152602001600073ffffffffffffffffffffffffffffffffffffffff168152602001600081526020018581526020018481526020016000600581111561075e5761075d611486565b5b815260200142815260200160008152506000808381526020019081526020016000206000820151816000015560208201518160010160006101000a81548173ffffffffffffffffffffffffffffffffffffffff021916908373ffffffffffffffffffffffffffffffffffffffff16021790555060408201518160020160006101000a81548173ffffffffffffffffffffffffffffffffffffffff021916908373ffffffffffffffffffffffffffffffffffffffff1602179055506060820151816003015560808201518160040190816108379190611c91565b5060a082015181600501908161084d9190611c91565b5060c08201518160060160006101000a81548160ff0219169083600581111561087957610878611486565b5b021790555060e0820151816007015561010082015181600801559050503373ffffffffffffffffffffffffffffffffffffffff16817fe2664ff85acbefce4793e83fe4a10e88680b3172a3e401c7946d7cfb8f19ebdb8660006040516108e0929190611d9e565b60405180910390a38091505092915050565b60015481565b600080600083815260200190815260200160002090503373ffffffffffffffffffffffffffffffffffffffff168160010160009054906101000a900473ffffffffffffffffffffffffffffffffffffffff1673ffffffffffffffffffffffffffffffffffffffff16146109a0576040517f08c379a000000000000000000000000000000000000000000000000000000000815260040161099790611e40565b60405180910390fd5b600060058111156109b4576109b3611486565b5b8160060160009054906101000a900460ff1660058111156109d8576109d7611486565b5b14610a18576040517f08c379a0000000000000000000000000000000000000000000000000000000008152600401610a0f90611eac565b60405180910390fd5b60003411610a5b576040517f08c379a0000000000000000000000000000000000000000000000000000000008152600401610a5290611f18565b60405180910390fd5b34816003018190555060018160060160006101000a81548160ff02191690836005811115610a8c57610a8b611486565b5b02179055503373ffffffffffffffffffffffffffffffffffffffff16827f1f2ef778192db87b6b1252b66de4351140e6f0d1f867e43904cd573ef33d3a1960405160405180910390a35050565b600080600083815260200190815260200160002090503373ffffffffffffffffffffffffffffffffffffffff168160010160009054906101000a900473ffffffffffffffffffffffffffffffffffffffff1673ffffffffffffffffffffffffffffffffffffffff1614610b81576040517f08c379a0000000000000000000000000000000000000000000000000000000008152600401610b7890611faa565b60405180910390fd5b60016005811115610b9557610b94611486565b5b8160060160009054906101000a900460ff166005811115610bb957610bb8611486565b5b14610bf9576040517f08c379a0000000000000000000000000000000000000000000000000000000008152600401610bf09061190a565b60405180910390fd5b600073ffffffffffffffffffffffffffffffffffffffff168160020160009054906101000a900473ffffffffffffffffffffffffffffffffffffffff1673ffffffffffffffffffffffffffffffffffffffff1603610c8c576040517f08c379a0000000000000000000000000000000000000000000000000000000008152600401610c839061203c565b60405180910390fd5b60008160020160009054906101000a900473ffffffffffffffffffffffffffffffffffffffff1673ffffffffffffffffffffffffffffffffffffffff168260030154604051610cda906119ed565b60006040518083038185875af1925050503d8060008114610d17576040519150601f19603f3d011682016040523d82523d6000602084013e610d1c565b606091505b5050905080610d60576040517f08c379a0000000000000000000000000000000000000000000000000000000008152600401610d5790611a4e565b60405180910390fd5b60028260060160006101000a81548160ff02191690836005811115610d8857610d87611486565b5b0217905550428260080181905550827f02244c8529cb95e213ee542e76e7776342b3dabd10203d01472bbf4441be892960405160405180910390a2505050565b6000600154905090565b6000806000806060806000806000806000808c815260200190815260200160002060405180610120016040529081600082015481526020016001820160009054906101000a900473ffffffffffffffffffffffffffffffffffffffff1673ffffffffffffffffffffffffffffffffffffffff1673ffffffffffffffffffffffffffffffffffffffff1681526020016002820160009054906101000a900473ffffffffffffffffffffffffffffffffffffffff1673ffffffffffffffffffffffffffffffffffffffff1673ffffffffffffffffffffffffffffffffffffffff16815260200160038201548152602001600482018054610ecf906117fb565b80601f0160208091040260200160405190810160405280929190818152602001828054610efb906117fb565b8015610f485780601f10610f1d57610100808354040283529160200191610f48565b820191906000526020600020905b815481529060010190602001808311610f2b57829003601f168201915b50505050508152602001600582018054610f61906117fb565b80601f0160208091040260200160405190810160405280929190818152602001828054610f8d906117fb565b8015610fda5780601f10610faf57610100808354040283529160200191610fda565b820191906000526020600020905b815481529060010190602001808311610fbd57829003601f168201915b505050505081526020016006820160009054906101000a900460ff16600581111561100857611007611486565b5b600581111561101a57611019611486565b5b8152602001600782015481526020016008820154815250509050806000015181602001518260400151836060015184608001518560a001518660c001518760e00151886101000151995099509950995099509950995099509950509193959799909294969850565b600080600084815260200190815260200160002090503373ffffffffffffffffffffffffffffffffffffffff168160010160009054906101000a900473ffffffffffffffffffffffffffffffffffffffff1673ffffffffffffffffffffffffffffffffffffffff161461112a576040517f08c379a0000000000000000000000000000000000000000000000000000000008152600401611121906120ce565b60405180910390fd5b6001600581111561113e5761113d611486565b5b8160060160009054906101000a900460ff16600581111561116257611161611486565b5b146111a2576040517f08c379a00000000000000000000000000000000000000000000000000000000081526004016111999061213a565b60405180910390fd5b600073ffffffffffffffffffffffffffffffffffffffff168273ffffffffffffffffffffffffffffffffffffffff1603611211576040517f08c379a0000000000000000000000000000000000000000000000000000000008152600401611208906121a6565b60405180910390fd5b8060010160009054906101000a900473ffffffffffffffffffffffffffffffffffffffff1673ffffffffffffffffffffffffffffffffffffffff168273ffffffffffffffffffffffffffffffffffffffff16036112a3576040517f08c379a000000000000000000000000000000000000000000000000000000000815260040161129a90612212565b60405180910390fd5b818160020160006101000a81548173ffffffffffffffffffffffffffffffffffffffff021916908373ffffffffffffffffffffffffffffffffffffffff1602179055508173ffffffffffffffffffffffffffffffffffffffff16837f3738a681a43a0b6a554742a08bae57e0215e8a774217dc2e7de6c9411b6d0ddc60405160405180910390a3505050565b6000604051905090565b600080fd5b600080fd5b6000819050919050565b61135681611343565b811461136157600080fd5b50565b6000813590506113738161134d565b92915050565b60006020828403121561138f5761138e611339565b5b600061139d84828501611364565b91505092915050565b6113af81611343565b82525050565b600073ffffffffffffffffffffffffffffffffffffffff82169050919050565b60006113e0826113b5565b9050919050565b6113f0816113d5565b82525050565b600081519050919050565b600082825260208201905092915050565b60005b83811015611430578082015181840152602081019050611415565b60008484015250505050565b6000601f19601f8301169050919050565b6000611458826113f6565b6114628185611401565b9350611472818560208601611412565b61147b8161143c565b840191505092915050565b7f4e487b7100000000000000000000000000000000000000000000000000000000600052602160045260246000fd5b600681106114c6576114c5611486565b5b50565b60008190506114d7826114b5565b919050565b60006114e7826114c9565b9050919050565b6114f7816114dc565b82525050565b600061012082019050611513600083018c6113a6565b611520602083018b6113e7565b61152d604083018a6113e7565b61153a60608301896113a6565b818103608083015261154c818861144d565b905081810360a0830152611560818761144d565b905061156f60c08301866114ee565b61157c60e08301856113a6565b61158a6101008301846113a6565b9a9950505050505050505050565b600080fd5b600080fd5b7f4e487b7100000000000000000000000000000000000000000000000000000000600052604160045260246000fd5b6115da8261143c565b810181811067ffffffffffffffff821117156115f9576115f86115a2565b5b80604052505050565b600061160c61132f565b905061161882826115d1565b919050565b600067ffffffffffffffff821115611638576116376115a2565b5b6116418261143c565b9050602081019050919050565b82818337600083830152505050565b600061167061166b8461161d565b611602565b90508281526020810184848401111561168c5761168b61159d565b5b61169784828561164e565b509392505050565b600082601f8301126116b4576116b3611598565b5b81356116c484826020860161165d565b91505092915050565b600080604083850312156116e4576116e3611339565b5b600083013567ffffffffffffffff8111156117025761170161133e565b5b61170e8582860161169f565b925050602083013567ffffffffffffffff81111561172f5761172e61133e565b5b61173b8582860161169f565b9150509250929050565b600060208201905061175a60008301846113a6565b92915050565b611769816113d5565b811461177457600080fd5b50565b60008135905061178681611760565b92915050565b600080604083850312156117a3576117a2611339565b5b60006117b185828601611364565b92505060206117c285828601611777565b9150509250929050565b7f4e487b7100000000000000000000000000000000000000000000000000000000600052602260045260246000fd5b6000600282049050600182168061181357607f821691505b602082108103611826576118256117cc565b5b50919050565b7f4f6e6c792074686520636c69656e742063616e2063616e63656c20746869732060008201527f6a6f620000000000000000000000000000000000000000000000000000000000602082015250565b6000611888602383611401565b91506118938261182c565b604082019050919050565b600060208201905081810360008301526118b78161187b565b9050919050565b7f4a6f62206d75737420626520696e2046756e6465642073746174757300000000600082015250565b60006118f4601c83611401565b91506118ff826118be565b602082019050919050565b60006020820190508181036000830152611923816118e7565b9050919050565b7f43616e6e6f742063616e63656c20696620667265656c616e636572206973206160008201527f737369676e656400000000000000000000000000000000000000000000000000602082015250565b6000611986602783611401565b91506119918261192a565b604082019050919050565b600060208201905081810360008301526119b581611979565b9050919050565b600081905092915050565b50565b60006119d76000836119bc565b91506119e2826119c7565b600082019050919050565b60006119f8826119ca565b9150819050919050565b7f5472616e73666572206661696c65640000000000000000000000000000000000600082015250565b6000611a38600f83611401565b9150611a4382611a02565b602082019050919050565b60006020820190508181036000830152611a6781611a2b565b9050919050565b7f4e487b7100000000000000000000000000000000000000000000000000000000600052601160045260246000fd5b6000611aa882611343565b91507fffffffffffffffffffffffffffffffffffffffffffffffffffffffffffffffff8203611ada57611ad9611a6e565b5b600182019050919050565b60008190508160005260206000209050919050565b60006020601f8301049050919050565b600082821b905092915050565b600060088302611b477fffffffffffffffffffffffffffffffffffffffffffffffffffffffffffffffff82611b0a565b611b518683611b0a565b95508019841693508086168417925050509392505050565b6000819050919050565b6000611b8e611b89611b8484611343565b611b69565b611343565b9050919050565b6000819050919050565b611ba883611b73565b611bbc611bb482611b95565b848454611b17565b825550505050565b600090565b611bd1611bc4565b611bdc818484611b9f565b505050565b5b81811015611c0057611bf5600082611bc9565b600181019050611be2565b5050565b601f821115611c4557611c1681611ae5565b611c1f84611afa565b81016020851015611c2e578190505b611c42611c3a85611afa565b830182611be1565b50505b505050565b600082821c905092915050565b6000611c6860001984600802611c4a565b1980831691505092915050565b6000611c818383611c57565b9150826002028217905092915050565b611c9a826113f6565b67ffffffffffffffff811115611cb357611cb26115a2565b5b611cbd82546117fb565b611cc8828285611c04565b600060209050601f831160018114611cfb5760008415611ce9578287015190505b611cf38582611c75565b865550611d5b565b601f198416611d0986611ae5565b60005b82811015611d3157848901518255600182019150602085019450602081019050611d0c565b86831015611d4e5784890151611d4a601f891682611c57565b8355505b6001600288020188555050505b505050505050565b6000819050919050565b6000611d88611d83611d7e84611d63565b611b69565b611343565b9050919050565b611d9881611d6d565b82525050565b60006040820190508181036000830152611db8818561144d565b9050611dc76020830184611d8f565b9392505050565b7f4f6e6c792074686520636c69656e742063616e2066756e642074686973206a6f60008201527f6200000000000000000000000000000000000000000000000000000000000000602082015250565b6000611e2a602183611401565b9150611e3582611dce565b604082019050919050565b60006020820190508181036000830152611e5981611e1d565b9050919050565b7f4a6f62206d75737420626520696e204372656174656420737461747573000000600082015250565b6000611e96601d83611401565b9150611ea182611e60565b602082019050919050565b60006020820190508181036000830152611ec581611e89565b9050919050565b7f416d6f756e74206d7573742062652067726561746572207468616e2030000000600082015250565b6000611f02601d83611401565b9150611f0d82611ecc565b602082019050919050565b60006020820190508181036000830152611f3181611ef5565b9050919050565b7f4f6e6c792074686520636c69656e742063616e20636f6d706c6574652074686960008201527f73206a6f62000000000000000000000000000000000000000000000000000000602082015250565b6000611f94602583611401565b9150611f9f82611f38565b604082019050919050565b60006020820190508181036000830152611fc381611f87565b9050919050565b7f4a6f62206d757374206861766520616e2061737369676e656420667265656c6160008201527f6e63657200000000000000000000000000000000000000000000000000000000602082015250565b6000612026602483611401565b915061203182611fca565b604082019050919050565b6000602082019050818103600083015261205581612019565b9050919050565b7f4f6e6c792074686520636c69656e742063616e2061737369676e20612066726560008201527f656c616e63657200000000000000000000000000000000000000000000000000602082015250565b60006120b8602783611401565b91506120c38261205c565b604082019050919050565b600060208201905081810360008301526120e7816120ab565b9050919050565b7f4a6f62206d7573742062652066756e6465642066697273740000000000000000600082015250565b6000612124601883611401565b915061212f826120ee565b602082019050919050565b6000602082019050818103600083015261215381612117565b9050919050565b7f496e76616c696420667265656c616e6365722061646472657373000000000000600082015250565b6000612190601a83611401565b915061219b8261215a565b602082019050919050565b600060208201905081810360008301526121bf81612183565b9050919050565b7f436c69656e742063616e6e6f742062652074686520667265656c616e63657200600082015250565b60006121fc601f83611401565b9150612207826121c6565b602082019050919050565b6000602082019050818103600083015261222b816121ef565b905091905056fea2646970667358221220e0f50b6bdba6a0fc588d3eb509fe9dfa773534d267c0cc4d3b0e25acf79e5bca64736f6c63430008140033",
  "linkReferences": {},
  "deployedLinkReferences": {}
}